{
  "_format": "hh-sol-artifact-1",
  "contractName": "PokemonCardCreation",
  "sourceName": "contracts/pokemonNFT.sol",
  "abi": [
    {
      "inputs": [
        {
          "internalType": "address",
          "name": "initialOwner",
          "type": "address"
        }
      ],
      "stateMutability": "nonpayable",
      "type": "constructor"
    },
    {
      "inputs": [
        {
          "internalType": "address",
          "name": "sender",
          "type": "address"
        },
        {
          "internalType": "uint256",
          "name": "tokenId",
          "type": "uint256"
        },
        {
          "internalType": "address",
          "name": "owner",
          "type": "address"
        }
      ],
      "name": "ERC721IncorrectOwner",
      "type": "error"
    },
    {
      "inputs": [
        {
          "internalType": "address",
          "name": "operator",
          "type": "address"
        },
        {
          "internalType": "uint256",
          "name": "tokenId",
          "type": "uint256"
        }
      ],
      "name": "ERC721InsufficientApproval",
      "type": "error"
    },
    {
      "inputs": [
        {
          "internalType": "address",
          "name": "approver",
          "type": "address"
        }
      ],
      "name": "ERC721InvalidApprover",
      "type": "error"
    },
    {
      "inputs": [
        {
          "internalType": "address",
          "name": "operator",
          "type": "address"
        }
      ],
      "name": "ERC721InvalidOperator",
      "type": "error"
    },
    {
      "inputs": [
        {
          "internalType": "address",
          "name": "owner",
          "type": "address"
        }
      ],
      "name": "ERC721InvalidOwner",
      "type": "error"
    },
    {
      "inputs": [
        {
          "internalType": "address",
          "name": "receiver",
          "type": "address"
        }
      ],
      "name": "ERC721InvalidReceiver",
      "type": "error"
    },
    {
      "inputs": [
        {
          "internalType": "address",
          "name": "sender",
          "type": "address"
        }
      ],
      "name": "ERC721InvalidSender",
      "type": "error"
    },
    {
      "inputs": [
        {
          "internalType": "uint256",
          "name": "tokenId",
          "type": "uint256"
        }
      ],
      "name": "ERC721NonexistentToken",
      "type": "error"
    },
    {
      "inputs": [],
      "name": "EnforcedPause",
      "type": "error"
    },
    {
      "inputs": [],
      "name": "ExpectedPause",
      "type": "error"
    },
    {
      "inputs": [
        {
          "internalType": "address",
          "name": "owner",
          "type": "address"
        }
      ],
      "name": "OwnableInvalidOwner",
      "type": "error"
    },
    {
      "inputs": [
        {
          "internalType": "address",
          "name": "account",
          "type": "address"
        }
      ],
      "name": "OwnableUnauthorizedAccount",
      "type": "error"
    },
    {
      "inputs": [],
      "name": "ReentrancyGuardReentrantCall",
      "type": "error"
    },
    {
      "anonymous": false,
      "inputs": [
        {
          "indexed": true,
          "internalType": "address",
          "name": "owner",
          "type": "address"
        },
        {
          "indexed": true,
          "internalType": "address",
          "name": "approved",
          "type": "address"
        },
        {
          "indexed": true,
          "internalType": "uint256",
          "name": "tokenId",
          "type": "uint256"
        }
      ],
      "name": "Approval",
      "type": "event"
    },
    {
      "anonymous": false,
      "inputs": [
        {
          "indexed": true,
          "internalType": "address",
          "name": "owner",
          "type": "address"
        },
        {
          "indexed": true,
          "internalType": "address",
          "name": "operator",
          "type": "address"
        },
        {
          "indexed": false,
          "internalType": "bool",
          "name": "approved",
          "type": "bool"
        }
      ],
      "name": "ApprovalForAll",
      "type": "event"
    },
    {
      "anonymous": false,
      "inputs": [
        {
          "indexed": false,
          "internalType": "uint256",
          "name": "_fromTokenId",
          "type": "uint256"
        },
        {
          "indexed": false,
          "internalType": "uint256",
          "name": "_toTokenId",
          "type": "uint256"
        }
      ],
      "name": "BatchMetadataUpdate",
      "type": "event"
    },
    {
      "anonymous": false,
      "inputs": [
        {
          "indexed": true,
          "internalType": "address",
          "name": "owner",
          "type": "address"
        },
        {
          "indexed": true,
          "internalType": "uint256",
          "name": "cardId",
          "type": "uint256"
        },
        {
          "indexed": false,
          "internalType": "string",
          "name": "uri",
          "type": "string"
        }
      ],
      "name": "CardMinted",
      "type": "event"
    },
    {
      "anonymous": false,
      "inputs": [
        {
          "indexed": false,
          "internalType": "uint256",
          "name": "_tokenId",
          "type": "uint256"
        }
      ],
      "name": "MetadataUpdate",
      "type": "event"
    },
    {
      "anonymous": false,
      "inputs": [
        {
          "indexed": true,
          "internalType": "address",
          "name": "previousOwner",
          "type": "address"
        },
        {
          "indexed": true,
          "internalType": "address",
          "name": "newOwner",
          "type": "address"
        }
      ],
      "name": "OwnershipTransferred",
      "type": "event"
    },
    {
      "anonymous": false,
      "inputs": [
        {
          "indexed": false,
          "internalType": "address",
          "name": "account",
          "type": "address"
        }
      ],
      "name": "Paused",
      "type": "event"
    },
    {
      "anonymous": false,
      "inputs": [
        {
          "indexed": true,
          "internalType": "address",
          "name": "from",
          "type": "address"
        },
        {
          "indexed": true,
          "internalType": "address",
          "name": "to",
          "type": "address"
        },
        {
          "indexed": true,
          "internalType": "uint256",
          "name": "tokenId",
          "type": "uint256"
        }
      ],
      "name": "Transfer",
      "type": "event"
    },
    {
      "anonymous": false,
      "inputs": [
        {
          "indexed": false,
          "internalType": "address",
          "name": "account",
          "type": "address"
        }
      ],
      "name": "Unpaused",
      "type": "event"
    },
    {
      "stateMutability": "payable",
      "type": "fallback"
    },
    {
      "inputs": [
        {
          "internalType": "address",
          "name": "to",
          "type": "address"
        },
        {
          "internalType": "uint256",
          "name": "tokenId",
          "type": "uint256"
        }
      ],
      "name": "approve",
      "outputs": [],
      "stateMutability": "nonpayable",
      "type": "function"
    },
    {
      "inputs": [
        {
          "internalType": "address",
          "name": "owner",
          "type": "address"
        }
      ],
      "name": "balanceOf",
      "outputs": [
        {
          "internalType": "uint256",
          "name": "",
          "type": "uint256"
        }
      ],
      "stateMutability": "view",
      "type": "function"
    },
    {
      "inputs": [],
      "name": "cardIdCounter",
      "outputs": [
        {
          "internalType": "uint256",
          "name": "",
          "type": "uint256"
        }
      ],
      "stateMutability": "view",
      "type": "function"
    },
    {
      "inputs": [
        {
          "internalType": "uint256",
          "name": "tokenId",
          "type": "uint256"
        }
      ],
      "name": "getApproved",
      "outputs": [
        {
          "internalType": "address",
          "name": "",
          "type": "address"
        }
      ],
      "stateMutability": "view",
      "type": "function"
    },
    {
      "inputs": [
        {
          "internalType": "uint256",
          "name": "tokenId",
          "type": "uint256"
        }
      ],
      "name": "getPokemonStats",
      "outputs": [
        {
          "components": [
            {
              "internalType": "uint8",
              "name": "hp",
              "type": "uint8"
            },
            {
              "internalType": "uint8",
              "name": "attack",
              "type": "uint8"
            },
            {
              "internalType": "uint8",
              "name": "defense",
              "type": "uint8"
            },
            {
              "internalType": "uint8",
              "name": "speed",
              "type": "uint8"
            },
            {
              "internalType": "uint8",
              "name": "special",
              "type": "uint8"
            },
            {
              "internalType": "enum PokemonCardCreation.PokemonType",
              "name": "pokemonType",
              "type": "uint8"
            }
          ],
          "internalType": "struct PokemonCardCreation.PokemonMetadata",
          "name": "",
          "type": "tuple"
        }
      ],
      "stateMutability": "view",
      "type": "function"
    },
    {
      "inputs": [
        {
          "internalType": "address",
          "name": "owner",
          "type": "address"
        },
        {
          "internalType": "address",
          "name": "operator",
          "type": "address"
        }
      ],
      "name": "isApprovedForAll",
      "outputs": [
        {
          "internalType": "bool",
          "name": "",
          "type": "bool"
        }
      ],
      "stateMutability": "view",
      "type": "function"
    },
    {
      "inputs": [
        {
          "internalType": "address",
          "name": "to",
          "type": "address"
        },
        {
          "internalType": "string",
          "name": "uri",
          "type": "string"
        },
        {
          "internalType": "uint8",
          "name": "hp",
          "type": "uint8"
        },
        {
          "internalType": "uint8",
          "name": "attack",
          "type": "uint8"
        },
        {
          "internalType": "uint8",
          "name": "defense",
          "type": "uint8"
        },
        {
          "internalType": "uint8",
          "name": "speed",
          "type": "uint8"
        },
        {
          "internalType": "uint8",
          "name": "special",
          "type": "uint8"
        },
        {
          "internalType": "enum PokemonCardCreation.PokemonType",
          "name": "pokemonType",
          "type": "uint8"
        }
      ],
      "name": "mintCard",
      "outputs": [],
      "stateMutability": "nonpayable",
      "type": "function"
    },
    {
      "inputs": [],
      "name": "name",
      "outputs": [
        {
          "internalType": "string",
          "name": "",
          "type": "string"
        }
      ],
      "stateMutability": "view",
      "type": "function"
    },
    {
      "inputs": [],
      "name": "owner",
      "outputs": [
        {
          "internalType": "address",
          "name": "",
          "type": "address"
        }
      ],
      "stateMutability": "view",
      "type": "function"
    },
    {
      "inputs": [
        {
          "internalType": "uint256",
          "name": "tokenId",
          "type": "uint256"
        }
      ],
      "name": "ownerOf",
      "outputs": [
        {
          "internalType": "address",
          "name": "",
          "type": "address"
        }
      ],
      "stateMutability": "view",
      "type": "function"
    },
    {
      "inputs": [],
      "name": "pause",
      "outputs": [],
      "stateMutability": "nonpayable",
      "type": "function"
    },
    {
      "inputs": [],
      "name": "paused",
      "outputs": [
        {
          "internalType": "bool",
          "name": "",
          "type": "bool"
        }
      ],
      "stateMutability": "view",
      "type": "function"
    },
    {
      "inputs": [
        {
          "internalType": "uint256",
          "name": "",
          "type": "uint256"
        }
      ],
      "name": "pokemonData",
      "outputs": [
        {
          "internalType": "uint8",
          "name": "hp",
          "type": "uint8"
        },
        {
          "internalType": "uint8",
          "name": "attack",
          "type": "uint8"
        },
        {
          "internalType": "uint8",
          "name": "defense",
          "type": "uint8"
        },
        {
          "internalType": "uint8",
          "name": "speed",
          "type": "uint8"
        },
        {
          "internalType": "uint8",
          "name": "special",
          "type": "uint8"
        },
        {
          "internalType": "enum PokemonCardCreation.PokemonType",
          "name": "pokemonType",
          "type": "uint8"
        }
      ],
      "stateMutability": "view",
      "type": "function"
    },
    {
      "inputs": [],
      "name": "renounceOwnership",
      "outputs": [],
      "stateMutability": "nonpayable",
      "type": "function"
    },
    {
      "inputs": [
        {
          "internalType": "address",
          "name": "from",
          "type": "address"
        },
        {
          "internalType": "address",
          "name": "to",
          "type": "address"
        },
        {
          "internalType": "uint256",
          "name": "tokenId",
          "type": "uint256"
        }
      ],
      "name": "safeTransferFrom",
      "outputs": [],
      "stateMutability": "nonpayable",
      "type": "function"
    },
    {
      "inputs": [
        {
          "internalType": "address",
          "name": "from",
          "type": "address"
        },
        {
          "internalType": "address",
          "name": "to",
          "type": "address"
        },
        {
          "internalType": "uint256",
          "name": "tokenId",
          "type": "uint256"
        },
        {
          "internalType": "bytes",
          "name": "data",
          "type": "bytes"
        }
      ],
      "name": "safeTransferFrom",
      "outputs": [],
      "stateMutability": "nonpayable",
      "type": "function"
    },
    {
      "inputs": [
        {
          "internalType": "address",
          "name": "operator",
          "type": "address"
        },
        {
          "internalType": "bool",
          "name": "approved",
          "type": "bool"
        }
      ],
      "name": "setApprovalForAll",
      "outputs": [],
      "stateMutability": "nonpayable",
      "type": "function"
    },
    {
      "inputs": [
        {
          "internalType": "bytes4",
          "name": "interfaceId",
          "type": "bytes4"
        }
      ],
      "name": "supportsInterface",
      "outputs": [
        {
          "internalType": "bool",
          "name": "",
          "type": "bool"
        }
      ],
      "stateMutability": "view",
      "type": "function"
    },
    {
      "inputs": [],
      "name": "symbol",
      "outputs": [
        {
          "internalType": "string",
          "name": "",
          "type": "string"
        }
      ],
      "stateMutability": "view",
      "type": "function"
    },
    {
      "inputs": [
        {
          "internalType": "uint256",
          "name": "tokenId",
          "type": "uint256"
        }
      ],
      "name": "tokenURI",
      "outputs": [
        {
          "internalType": "string",
          "name": "",
          "type": "string"
        }
      ],
      "stateMutability": "view",
      "type": "function"
    },
    {
      "inputs": [
        {
          "internalType": "address",
          "name": "from",
          "type": "address"
        },
        {
          "internalType": "address",
          "name": "to",
          "type": "address"
        },
        {
          "internalType": "uint256",
          "name": "tokenId",
          "type": "uint256"
        }
      ],
      "name": "transferFrom",
      "outputs": [],
      "stateMutability": "nonpayable",
      "type": "function"
    },
    {
      "inputs": [
        {
          "internalType": "address",
          "name": "newOwner",
          "type": "address"
        }
      ],
      "name": "transferOwnership",
      "outputs": [],
      "stateMutability": "nonpayable",
      "type": "function"
    },
    {
      "inputs": [],
      "name": "unpause",
      "outputs": [],
      "stateMutability": "nonpayable",
      "type": "function"
    },
    {
      "stateMutability": "payable",
      "type": "receive"
    }
  ],
  "bytecode": "0x608060405234801561001057600080fd5b50604051611ebb380380611ebb83398101604081905261002f91610136565b806040518060400160405280600b81526020016a141bdad95b5bdb90d85c9960aa1b81525060405180604001604052806003815260200162504b4360e81b815250816000908161007f9190610205565b50600161008c8282610205565b50506001600755506001600160a01b0381166100c257604051631e4fbdf760e01b81526000600482015260240160405180910390fd5b6100cb816100e4565b50506008805460ff60a01b1916905560006009556102c3565b600880546001600160a01b038381166001600160a01b0319831681179093556040519116919082907f8be0079c531659141344cd1fd0a4f28419497f9722a3daafe3b4186f6b6457e090600090a35050565b60006020828403121561014857600080fd5b81516001600160a01b038116811461015f57600080fd5b9392505050565b634e487b7160e01b600052604160045260246000fd5b600181811c9082168061019057607f821691505b6020821081036101b057634e487b7160e01b600052602260045260246000fd5b50919050565b601f82111561020057806000526020600020601f840160051c810160208510156101dd5750805b601f840160051c820191505b818110156101fd57600081556001016101e9565b50505b505050565b81516001600160401b0381111561021e5761021e610166565b6102328161022c845461017c565b846101b6565b6020601f821160018114610266576000831561024e5750848201515b600019600385901b1c1916600184901b1784556101fd565b600084815260208120601f198516915b828110156102965787850151825560209485019460019092019101610276565b50848210156102b45786840151600019600387901b60f8161c191681555b50505050600190811b01905550565b611be9806102d26000396000f3fe6080604052600436106101445760003560e01c806370a08231116100b6578063b88d4fde1161006f578063b88d4fde14610404578063c1b2c1ae14610424578063c87b56dd14610499578063c8e0d774146104b9578063e985e9c5146104e6578063f2fde38b1461050657610196565b806370a0823114610367578063715018a6146103875780638456cb591461039c5780638da5cb5b146103b157806395d89b41146103cf578063a22cb465146103e457610196565b806323b872dd1161010857806323b872dd146102af5780633f4ba83a146102cf57806342842e0e146102e45780634db1ed0c146103045780635c975abb146103285780636352211e1461034757610196565b806301ffc9a7146101de57806306fdde0314610213578063081812fc14610235578063095ea7b31461026d5780630c531a391461028f57610196565b366101965760405162461bcd60e51b815260206004820152601b60248201527f526563656976653a204574686572206e6f74206163636570746564000000000060448201526064015b60405180910390fd5b60405162461bcd60e51b815260206004820152601c60248201527f46616c6c6261636b3a204574686572206e6f7420616363657074656400000000604482015260640161018d565b3480156101ea57600080fd5b506101fe6101f936600461155c565b610526565b60405190151581526020015b60405180910390f35b34801561021f57600080fd5b50610228610551565b60405161020a91906115c9565b34801561024157600080fd5b506102556102503660046115dc565b6105e3565b6040516001600160a01b03909116815260200161020a565b34801561027957600080fd5b5061028d610288366004611611565b61060c565b005b34801561029b57600080fd5b5061028d6102aa3660046116dc565b61061b565b3480156102bb57600080fd5b5061028d6102ca3660046117aa565b61086e565b3480156102db57600080fd5b5061028d6108f9565b3480156102f057600080fd5b5061028d6102ff3660046117aa565b61090b565b34801561031057600080fd5b5061031a60095481565b60405190815260200161020a565b34801561033457600080fd5b50600854600160a01b900460ff166101fe565b34801561035357600080fd5b506102556103623660046115dc565b61092b565b34801561037357600080fd5b5061031a6103823660046117e7565b610936565b34801561039357600080fd5b5061028d61097e565b3480156103a857600080fd5b5061028d610990565b3480156103bd57600080fd5b506008546001600160a01b0316610255565b3480156103db57600080fd5b506102286109a0565b3480156103f057600080fd5b5061028d6103ff366004611802565b6109af565b34801561041057600080fd5b5061028d61041f36600461183e565b6109ba565b34801561043057600080fd5b5061048761043f3660046115dc565b600a6020526000908152604090205460ff8082169161010081048216916201000082048116916301000000810482169164010000000082048116916501000000000090041686565b60405161020a969594939291906118f2565b3480156104a557600080fd5b506102286104b43660046115dc565b6109d2565b3480156104c557600080fd5b506104d96104d43660046115dc565b610ae3565b60405161020a9190611934565b3480156104f257600080fd5b506101fe610501366004611990565b610bb3565b34801561051257600080fd5b5061028d6105213660046117e7565b610be1565b60006001600160e01b03198216632483248360e11b148061054b575061054b82610c1f565b92915050565b606060008054610560906119c3565b80601f016020809104026020016040519081016040528092919081815260200182805461058c906119c3565b80156105d95780601f106105ae576101008083540402835291602001916105d9565b820191906000526020600020905b8154815290600101906020018083116105bc57829003601f168201915b5050505050905090565b60006105ee82610c6f565b506000828152600460205260409020546001600160a01b031661054b565b610617828233610ca8565b5050565b610623610cb5565b61062b610ce2565b8560ff1660641015801561064357508460ff16606410155b801561065357508360ff16606410155b801561066357508260ff16606410155b801561067357508160ff16606410155b6106dc5760405162461bcd60e51b815260206004820152603460248201527f506f6b656d6f6e436172644372656174696f6e3a205374617473206d7573742060448201527306265206265747765656e203020616e64203130360641b606482015260840161018d565b600980549060006106ec836119fd565b91905055506106fd88600954610d0d565b600954886001600160a01b03167faf02fa77499909cd82ab4d5d8e4d4f99b087d490dc3429881a9a688e1b4debd68960405161073991906115c9565b60405180910390a361074d60095488610d72565b6040518060c001604052808760ff1681526020018660ff1681526020018560ff1681526020018460ff1681526020018360ff168152602001826012811115610797576107976118ba565b90526009546000908152600a60209081526040918290208351815492850151938501516060860151608087015160ff9081166401000000000264ff000000001992821663010000000263ff0000001994831662010000029490941663ffff0000199883166101000261ffff199098169290951691909117959095179590951691909117179283168217815560a084015190929091839165ff00000000001990911665ffff0000000019909116176501000000000083601281111561085d5761085d6118ba565b021790555050505050505050505050565b6001600160a01b03821661089857604051633250574960e11b81526000600482015260240161018d565b60006108a5838333610dc2565b9050836001600160a01b0316816001600160a01b0316146108f3576040516364283d7b60e01b81526001600160a01b038086166004830152602482018490528216604482015260640161018d565b50505050565b610901610cb5565b610909610ebb565b565b610926838383604051806020016040528060008152506109ba565b505050565b600061054b82610c6f565b60006001600160a01b038216610962576040516322718ad960e21b81526000600482015260240161018d565b506001600160a01b031660009081526003602052604090205490565b610986610cb5565b6109096000610f10565b610998610cb5565b610909610f62565b606060018054610560906119c3565b610617338383610fa5565b6109c584848461086e565b6108f33385858585611044565b60606109dd82610c6f565b50600082815260066020526040812080546109f7906119c3565b80601f0160208091040260200160405190810160405280929190818152602001828054610a23906119c3565b8015610a705780601f10610a4557610100808354040283529160200191610a70565b820191906000526020600020905b815481529060010190602001808311610a5357829003601f168201915b505050505090506000610a8e60408051602081019091526000815290565b90508051600003610aa0575092915050565b815115610ad2578082604051602001610aba929190611a24565b60405160208183030381529060405292505050919050565b610adb8461116f565b949350505050565b610b196040805160c08101825260008082526020820181905291810182905260608101829052608081018290529060a082015290565b6000828152600a6020908152604091829020825160c081018452815460ff80821683526101008204811694830194909452620100008104841694820194909452630100000084048316606082015264010000000084048316608082015292909160a0840191650100000000009004166012811115610b9957610b996118ba565b6012811115610baa57610baa6118ba565b90525092915050565b6001600160a01b03918216600090815260056020908152604080832093909416825291909152205460ff1690565b610be9610cb5565b6001600160a01b038116610c1357604051631e4fbdf760e01b81526000600482015260240161018d565b610c1c81610f10565b50565b60006001600160e01b031982166380ac58cd60e01b1480610c5057506001600160e01b03198216635b5e139f60e01b145b8061054b57506301ffc9a760e01b6001600160e01b031983161461054b565b6000818152600260205260408120546001600160a01b03168061054b57604051637e27328960e01b81526004810184905260240161018d565b61092683838360016111e4565b6008546001600160a01b031633146109095760405163118cdaa760e01b815233600482015260240161018d565b600854600160a01b900460ff16156109095760405163d93c066560e01b815260040160405180910390fd5b6001600160a01b038216610d3757604051633250574960e11b81526000600482015260240161018d565b6000610d4583836000610dc2565b90506001600160a01b03811615610926576040516339e3563760e11b81526000600482015260240161018d565b6000828152600660205260409020610d8a8282611a9a565b506040518281527ff8e1a15aba9398e019f0b49df1a4fde98ee17ae345cb5f6b5e2c27f5033e8ce79060200160405180910390a15050565b6000828152600260205260408120546001600160a01b0390811690831615610def57610def8184866112ea565b6001600160a01b03811615610e2d57610e0c6000856000806111e4565b6001600160a01b038116600090815260036020526040902080546000190190555b6001600160a01b03851615610e5c576001600160a01b0385166000908152600360205260409020805460010190555b60008481526002602052604080822080546001600160a01b0319166001600160a01b0389811691821790925591518793918516917fddf252ad1be2c89b69c2b068fc378daa952ba7f163c4a11628f55a4df523b3ef91a4949350505050565b610ec361134e565b6008805460ff60a01b191690557f5db9ee0a495bf2e6ff9c91a7834c1ba4fdd244a5e8aa4e537bd38aeae4b073aa335b6040516001600160a01b03909116815260200160405180910390a1565b600880546001600160a01b038381166001600160a01b0319831681179093556040519116919082907f8be0079c531659141344cd1fd0a4f28419497f9722a3daafe3b4186f6b6457e090600090a35050565b610f6a610ce2565b6008805460ff60a01b1916600160a01b1790557f62e78cea01bee320cd4e420270b5ea74000d11b0c9f74754ebdbfc544b05a258610ef33390565b6001600160a01b038216610fd757604051630b61174360e31b81526001600160a01b038316600482015260240161018d565b6001600160a01b03838116600081815260056020908152604080832094871680845294825291829020805460ff191686151590811790915591519182527f17307eab39ab6107e8899845ad3d59bd9653f200f220920489ca2b5937696c31910160405180910390a3505050565b6001600160a01b0383163b1561116857604051630a85bd0160e11b81526001600160a01b0384169063150b7a0290611086908890889087908790600401611b59565b6020604051808303816000875af19250505080156110c1575060408051601f3d908101601f191682019092526110be91810190611b96565b60015b61112a573d8080156110ef576040519150601f19603f3d011682016040523d82523d6000602084013e6110f4565b606091505b50805160000361112257604051633250574960e11b81526001600160a01b038516600482015260240161018d565b805181602001fd5b6001600160e01b03198116630a85bd0160e11b1461116657604051633250574960e11b81526001600160a01b038516600482015260240161018d565b505b5050505050565b606061117a82610c6f565b50600061119260408051602081019091526000815290565b905060008151116111b257604051806020016040528060008152506111dd565b806111bc84611378565b6040516020016111cd929190611a24565b6040516020818303038152906040525b9392505050565b80806111f857506001600160a01b03821615155b156112ba57600061120884610c6f565b90506001600160a01b038316158015906112345750826001600160a01b0316816001600160a01b031614155b801561124757506112458184610bb3565b155b156112705760405163a9fbf51f60e01b81526001600160a01b038416600482015260240161018d565b81156112b85783856001600160a01b0316826001600160a01b03167f8c5be1e5ebec7d5bd14f71427d1e84f3dd0314c0f7b2291e5b200ac8c7c3b92560405160405180910390a45b505b5050600090815260046020526040902080546001600160a01b0319166001600160a01b0392909216919091179055565b6112f583838361140b565b610926576001600160a01b03831661132357604051637e27328960e01b81526004810182905260240161018d565b60405163177e802f60e01b81526001600160a01b03831660048201526024810182905260440161018d565b600854600160a01b900460ff1661090957604051638dfc202b60e01b815260040160405180910390fd5b606060006113858361146e565b600101905060008167ffffffffffffffff8111156113a5576113a561163b565b6040519080825280601f01601f1916602001820160405280156113cf576020820181803683370190505b5090508181016020015b600019016f181899199a1a9b1b9c1cb0b131b232b360811b600a86061a8153600a85049450846113d957509392505050565b60006001600160a01b03831615801590610adb5750826001600160a01b0316846001600160a01b0316148061144557506114458484610bb3565b80610adb5750506000908152600460205260409020546001600160a01b03908116911614919050565b60008072184f03e93ff9f4daa797ed6e38ed64bf6a1f0160401b83106114ad5772184f03e93ff9f4daa797ed6e38ed64bf6a1f0160401b830492506040015b6d04ee2d6d415b85acef810000000083106114d9576d04ee2d6d415b85acef8100000000830492506020015b662386f26fc1000083106114f757662386f26fc10000830492506010015b6305f5e100831061150f576305f5e100830492506008015b612710831061152357612710830492506004015b60648310611535576064830492506002015b600a831061054b5760010192915050565b6001600160e01b031981168114610c1c57600080fd5b60006020828403121561156e57600080fd5b81356111dd81611546565b60005b8381101561159457818101518382015260200161157c565b50506000910152565b600081518084526115b5816020860160208601611579565b601f01601f19169290920160200192915050565b6020815260006111dd602083018461159d565b6000602082840312156115ee57600080fd5b5035919050565b80356001600160a01b038116811461160c57600080fd5b919050565b6000806040838503121561162457600080fd5b61162d836115f5565b946020939093013593505050565b634e487b7160e01b600052604160045260246000fd5b60008067ffffffffffffffff84111561166c5761166c61163b565b50604051601f19601f85018116603f0116810181811067ffffffffffffffff8211171561169b5761169b61163b565b6040528381529050808284018510156116b357600080fd5b83836020830137600060208583010152509392505050565b803560ff8116811461160c57600080fd5b600080600080600080600080610100898b0312156116f957600080fd5b611702896115f5565b9750602089013567ffffffffffffffff81111561171e57600080fd5b8901601f81018b1361172f57600080fd5b61173e8b823560208401611651565b97505061174d60408a016116cb565b955061175b60608a016116cb565b945061176960808a016116cb565b935061177760a08a016116cb565b925061178560c08a016116cb565b915060e08901356013811061179957600080fd5b809150509295985092959890939650565b6000806000606084860312156117bf57600080fd5b6117c8846115f5565b92506117d6602085016115f5565b929592945050506040919091013590565b6000602082840312156117f957600080fd5b6111dd826115f5565b6000806040838503121561181557600080fd5b61181e836115f5565b91506020830135801515811461183357600080fd5b809150509250929050565b6000806000806080858703121561185457600080fd5b61185d856115f5565b935061186b602086016115f5565b925060408501359150606085013567ffffffffffffffff81111561188e57600080fd5b8501601f8101871361189f57600080fd5b6118ae87823560208401611651565b91505092959194509250565b634e487b7160e01b600052602160045260246000fd5b601381106118ee57634e487b7160e01b600052602160045260246000fd5b9052565b60ff87811682528681166020830152858116604083015284811660608301528316608082015260c0810161192960a08301846118d0565b979650505050505050565b600060c08201905060ff835116825260ff602084015116602083015260ff604084015116604083015260ff606084015116606083015260ff608084015116608083015260a083015161198960a08401826118d0565b5092915050565b600080604083850312156119a357600080fd5b6119ac836115f5565b91506119ba602084016115f5565b90509250929050565b600181811c908216806119d757607f821691505b6020821081036119f757634e487b7160e01b600052602260045260246000fd5b50919050565b600060018201611a1d57634e487b7160e01b600052601160045260246000fd5b5060010190565b60008351611a36818460208801611579565b835190830190611a4a818360208801611579565b01949350505050565b601f82111561092657806000526020600020601f840160051c81016020851015611a7a5750805b601f840160051c820191505b818110156111685760008155600101611a86565b815167ffffffffffffffff811115611ab457611ab461163b565b611ac881611ac284546119c3565b84611a53565b6020601f821160018114611afc5760008315611ae45750848201515b600019600385901b1c1916600184901b178455611168565b600084815260208120601f198516915b82811015611b2c5787850151825560209485019460019092019101611b0c565b5084821015611b4a5786840151600019600387901b60f8161c191681555b50505050600190811b01905550565b6001600160a01b0385811682528416602082015260408101839052608060608201819052600090611b8c9083018461159d565b9695505050505050565b600060208284031215611ba857600080fd5b81516111dd8161154656fea26469706673582212200d98dde8ec367128087c371ac1fb16d240e1055344ac947cde36b52e6491a3b764736f6c634300081c0033",
  "linkReferences": {},
  "deployedLinkReferences": {}
}